:020000040800F2
:10000000802000204D02000829360008CD35000868
:10001000CF35000811120008993A000800000000CE
:100020000000000000000000000000000938000887
:100030002D130008000000007D3600080B38000872
:1000400067020008670200086702000867020008EC
:1000500067020008670200086702000867020008DC
:1000600067020008670200086702000867020008CC
:1000700067020008670200086702000867020008BC
:1000800067020008670200080000000071390008DC
:10009000670200086702000867020008670200089C
:1000A000670200086702000867020008670200088C
:1000B000670200080000000067020008000000005E
:1000C000670200080000000067020008000000004E
:1000D0000000000000000000000000000000000020
:1000E000000000000000000067020008000000009F
:1000F0000000000000000000000000000000000000
:10010000670200080000000000000000000000007E
:1001100000000000000000000000000000000000DF
:1001200000000000000000000000000000000000CF
:1001300000000000000000000000000000000000BF
:10014000000000000000000000000000670200083E
:1001500000F002F800F06AF80AA090E8000C82446F
:100160008344AAF10107DA4501D100F05FF8AFF24C
:10017000090EBAE80F0013F0010F18BFFB1A43F085
:100180000103184734770100547701000A444FF007
:10019000000C10F8013B13F0070408BF10F8014BE6
:1001A0001D1108BF10F8015B641E05D010F8016B2B
:1001B000641E01F8016BF9D113F0080F1EBF10F88F
:1001C000014BAD1C0C1B09D16D1E58BF01F801CBB2
:1001D000FAD505E014F8016B01F8016B6D1EF9D535
:1001E0009142D6D37047000000230024002500264A
:1001F000103A28BF78C1FBD8520728BF30C148BF8A
:100200000B607047642900F0A580732900F06B83B0
:10021000002070471FB508F08EFE9DE8030000F037
:100220001DFD00F0BBFA1FBD10B510BD00F0D0FCE5
:100230001146FFF7EFFF07F05BFD00F045FD03B44B
:10024000FFF7F2FF03BC00F071FD00000948804792
:1002500009480047FEE7FEE7FEE7FEE7FEE7FEE7A8
:10026000FEE7FEE7FEE7FEE704480549054A064BC0
:10027000704700001938000851010008800600206E
:1002800080200020801C0020801C00200FB41CB5A2
:10029000074B06AA7B4469460090059800F0F9FADE
:1002A0000020694600F008FB1CBC5DF814FB000050
:1002B0002106000070B5044685690068C10601D5B5
:1002C000302600E02026C00707D070BDD4E9012108
:1002D00030469047206A401C20626D1EF6D570BDE6
:1002E00070B5044685690078C00707D170BDD4E9B0
:1002F000012120209047206A401C20626D1EF6D507
:1003000070BD70B50C460546012A05D028788006D8
:1003100000D5EA69002302E0012305E05B1C93425B
:1003200002D2E05C0028F9D1A869E618C01AA861D9
:10033000286A184428622846FFF7BCFF04E0D5E984
:10034000012114F8010B9047B442F8D32846FFF777
:10035000C7FF70BD2DE9F0410646002410687529DD
:10036000314616A510D0AFF30080002802DA4042D3
:1003700013A507E031688A0701D512A502E04907F5
:1003800004D511A5012401E0AFF3008000210A2269
:1003900006F1240709E0B0FBF2FCB0FBF2F302FB2C
:1003A0001C00303078541846491C0028F3D12346ED
:1003B0002A463046BDE8F04100F00DBA00000000CA
:1003C0002D0000002B000000200000002DE9F05F50
:1003D000894604464FF0000ADFF824B1FB44C0F818
:1003E00020A02046E168884700287DD0252806D037
:1003F000D4E901219047206A401C2062F1E70025E2
:100400005F462046E16888472028064607DB312EF4
:1004100005D2B81910F8200C08B10543F1E7A80778
:1004200001D525F00405C4F81CA00027C4F818A0C5
:100430002A2E09D0304606F0D3F938B304EB8708EA
:10044000303EC8F8186019E059F8041B204604EB48
:1004500087029161E1688847012F064618D1E0695B
:10046000002820DA25F020051DE0D8F8180000EB60
:10047000800006EB40003038C8F818002046E168DC
:100480008847064606F0ACF90028EED1012F0AD0C5
:100490002E2E08D12046E16888477F1C0646022F91
:1004A00045F02005C4DBA069002803DA404245F08E
:1004B0000105A061E80701D025F01005A6B1A6F15D
:1004C0004100192802D8203645F400654A463146D5
:1004D000204625604D46FFF795FE60B1012807D004
:1004E000ED1D25F0070000E007E000F1080978E7BE
:1004F00005F1040975E730467AE7206ABDE8F09F08
:10050000D573010010B5431C02E010F8011B71B156
:100510008107FAD14FF0013202C88C1A8C4314EAD9
:10052000C211F9D0C01A0A0603D0C01E10BDC01AED
:1005300010BD0A0401D0801E10BD0902FCD0401E6F
:1005400010BD032A40F2308010F0030C00F015803B
:1005500011F8013BBCF1020F624498BF11F801CBC6
:1005600000F8013B38BF11F8013BA2F1040298BF2B
:1005700000F801CB38BF00F8013B11F0030300F095
:10058000B681083AC0F0088051F8043B083A51F8A7
:1005900004CBA0E80810F5E7121D5CBF51F8043B3E
:1005A00040F8043BAFF30080D20724BF11F8013BB1
:1005B00011F801CB48BF11F8012B24BF00F8013B13
:1005C00000F801CB48BF00F8012B704702F0FF0391
:1005D00043EA032242EA024200F0BDB9014900F0B9
:1005E000DBB90000F405002010B503681C1404EB0F
:1005F00021449BB289B2194494FBF2F302FB1343EA
:1006000094FBF2F401EB034393FBF2F102FB113193
:1006100093FBF2F301E05B1E11440029FBDB016058
:1006200003EB044010BDF0B504464FF0FF3585B034
:100630000068049060680290A0680390E0680190F0
:1006400020690090666906F18040B0F1004F7CD8C7
:100650003C22002104A8FFF7C7FF3C22014602A864
:10066000FFF7C2FF1822014603A8FFF7BDFF411E96
:1006700040F2B55201A8FFF7B7FF0C2207466846C3
:100680000021FFF7B1FF414B00EB8700304400260B
:100690007B4411E0511A01910099491C02290091F3
:1006A00002D00C2908D105E0810705D00199491C29
:1006B000019101E0401C00960099019A595C914219
:1006C000E8DD0099012906D11C2A04D1810702D056
:1006D0000221CDE90016A0F146018B293CD2DDE9CB
:1006E0000061002202E09F5C521C3944B242FADBF6
:1006F000012E02DD820700D0491E40F2B55340F2C0
:100700006D16C21700EB927292105A4300F0030369
:1007100003FB062283070A4400D1521E039E02EB0C
:100720004203049F06EBC303029EC3EB031306EBD5
:100730008303174E33441E149BB2C6EB0616C3EB5D
:100740000313B60007EB830300E005E006EB134656
:1007500066F31F43360C02D0284605B0F0BD80C4B6
:10076000029E40C4039E40C4019E761C44F80C6B5C
:10077000009E44E902600720521C92FBF0F600FB49
:10078000162084E823001846E7E700007471010092
:10079000A039CEFD704770477047000070B5064C19
:1007A0007C44064D7D4403E0206820448047241D9E
:1007B000AC42F9D170BD0000347101003471010008
:1007C00010B500F049F9006810BD10B5044600F0FE
:1007D00043F9046010BD2DE9F0470D469946924655
:1007E000044600F124080168880604D5E06921F078
:1007F0001001216000E00120A84201DD471B00E05C
:100800000027A1697A1902EB0900081AA061207873
:10081000C00602D42046FFF74DFD002608E0D4E9CB
:1008200001211AF806009047206A401C761C2062BD
:100830004E45F4DB2078C0060AD52046FFF73AFD86
:1008400006E0D4E9012130209047206A401C206254
:10085000381EA7F10107F4DC07E0D4E9012118F8FC
:1008600005009047206A401C2062281EA5F1010562
:10087000F3DC2046FFF734FD2078000602D5022085
:10088000BDE8F0870120FBE701694A1C0261087896
:10089000704700B58FB0CDE90131002105910549C0
:1008A0007944CDE9031011466846FFF78FFD0FB07C
:1008B00000BD0000E5FFFFFF0A6802F8010B0A60B7
:1008C000704710B5436913B1AFF3008001E0FFF743
:1008D00018FD012010BD127800F124010A700022D9
:1008E0004A700122EDE711684FF0FF32E9E710B5D9
:1008F000203AC0F00B80B1E81850203AA0E8185018
:10090000B1E81850A0E81850BFF4F5AF5FEA027CD8
:1009100024BFB1E81850A0E8185044BF18C918C047
:10092000BDE810405FEA827C24BF51F8043B40F8E8
:10093000043B08BF7047D20728BF31F8023B48BFCD
:1009400011F8012B28BF20F8023B48BF00F8012B0B
:1009500070474FF000020429C0F0128010F0030C21
:1009600000F0D680CCF1040CBCF1020F18BF00F8E7
:10097000012BA8BF20F8022BA1EB0C0100F0C8B896
:100980005FEAC17C24BF00F8012B00F8012B48BFAF
:1009900000F8012B7047000070B50C46016800207C
:1009A0004A1C3ED03C22B1FBF2F302FB1313B1FB15
:1009B000F2F12360B1FBF2F302FB1313B1FBF2F18E
:1009C00018226360B1FBF2F302FB1313B1FBF2F1E7
:1009D00046F2E0320A440721A360B2FBF1F301FBC7
:1009E000132140F2B553B2FBF3F5A161B2FBF3F171
:1009F00003FB15228900B2F5B77F08D39B10521E66
:100A0000B2FBF3F52944B2FBF3F503FB15220F4BC0
:100A1000E261616189077B440CD03B2A0AD3521CF6
:100A200008E02C21204600F071F80120E0600AE087
:100A3000521A401C195C9142FAD9521CC4E9032095
:100A40004FF0FF302062204670BD0000EE6D0100C7
:100A500000487047540600200048704720060020D8
:100A600070B5064600F0DAF8056806F10B0020F0D4
:100A70000704B4429CBF002070BD2B466A68BAB11F
:100A80001068A04210D304F1080188423CBF5068AE
:100A9000586007D35168101941601168091B016043
:100AA00058601460101D70BD13465268002AE7D1CB
:100AB0002146284600F0BEF80028DED170BD70B592
:100AC0000446051F00F0AAF80068002C14BF446813
:100AD00070BD002C18BFAC423CBF20466468F8D300
:100AE00001680A18AA4218BF456003D12A68054662
:100AF0001144016028684119A1421CBF6C6070BD9F
:100B00006168696021680844286070BD4FF0000288
:100B100000B5134694469646203922BFA0E80C50F3
:100B2000A0E80C50B1F12001BFF4F7AF090728BFCE
:100B3000A0E80C5048BF0CC05DF804EB890028BF4A
:100B400040F8042B08BF704748BF20F8022B11F073
:100B5000804F18BF00F8012B7047AFF3008010B52D
:100B600000F00DF8016919B100220261884701E027
:100B70008068804700F0B1F810B500F0AEF870B5AD
:100B800000F050F804680546A4B92020FFF768FF7C
:100B9000040011D0094900202C60C4E90001084973
:100BA000A1602073206160610649A06109B100F075
:100BB0009FF8E061204670BD00F08FF80000000053
:100BC000790B000800000000004870472006002054
:100BD0007546FFF7F9FFAE4605006946534620F01B
:100BE0000700854618B020B5FFF73EFBBDE8204062
:100BF0004FF000064FF000074FF000084FF0000BD9
:100C000021F00701AC46ACE8C009ACE8C009ACE88B
:100C1000C009ACE8C0098D46704700000048704725
:100C200028060020004870475C0600207047704787
:100C30007047704738B504460A4600206946AFF34E
:100C40000080002808BF38BD02460099204600F009
:100C500073F8012038BD012000F08FB8F8B5AFF36C
:100C60000080054600200C46102000BF0646A8194B
:100C7000A0420DD9324669460020AFF3008007003C
:100C800008BF00F07AF80098A04218BF0546C419C2
:100C9000FFF7C4FF05600746F01D20F00700461966
:100CA000284600F00AF8B44208BFF8BDA21B31463E
:100CB0003868BDE8F84000F03FB800210160C0E9A5
:100CC000011070471020704710B50446AFF3008044
:100CD0002046BDE81040FFF7B2BA10B5002000F082
:100CE00045F8FFF7A1FABDE81040012000F01EB85A
:100CF00010B58820FFF7B4FE002801D00021017054
:100D000010BD802902D808B1017809B100207047D0
:100D1000012100F8081B704718B100F10802914248
:100D200001D0002070470021017070470149182050
:100D3000ABBEFEE726000200034640688C46002852
:100D400018BF88423CBF03464068F8D3186818446F
:100D5000884207D00CF1030020F00700001D411A63
:100D6000521A0146081D0A60FFF7A9BE10B500F02F
:100D700011F8BDE8104000F008B810B500F022F8F6
:100D8000BDE8104000F001B87047002801D0FFF71F
:100D9000CDBF704710B5002102A000F03BF8012044
:100DA00010BD0000534947414252543A2041626EFF
:100DB0006F726D616C207465726D696E6174696FBC
:100DC0006E00000010B5012805D0002103A000F03E
:100DD00021F8012010BD09A1F8E70000534947524E
:100DE000544D454D3A204F7574206F6620686561FB
:100DF00070206D656D6F7279000000003A204865C3
:100E00006170206D656D6F727920636F727275709D
:100E10007465640070B505460C460A2000E06D1C40
:100E200000F011F835B128780028F8D102E0641CF0
:100E300000F009F814B120780028F8D1BDE870401E
:100E40000A20AFF3008008B569468DF80000032042
:100E5000ABBE08BD2DE9F04FE94DEA4C05F1180E87
:100E6000686A40F29B189EF801200168002785B04F
:100E7000A1F29B1C4FF0400A4FF0500B05F11A09EC
:100E800004F1110304F1480641457DD02CDC2029F2
:100E90006AD017DCDA4B0C2903F14C039B785CD049
:100EA00005DC022955D00B291BD1237197E10D29AF
:100EB00055D01F2915D184F83020002AF6D00328F8
:100EC0004FD04FE02B297CD033297BD034297BD0E5
:100ED000352906D1CC49027EC861A0186962007E1E
:100EE000087605B0BDE8F08FC54901261831BCF180
:100EF000630F91F9011068D01ADCBCF1010F65D0C5
:100F0000BCF10A0F7ED0BCF10B0F7CD0BCF11E0FE0
:100F1000E7D17246002977D0017E491C49B201769B
:100F2000012972D00229DCD102F02CFC03F0C0FCB4
:100F3000BCF1640F6AD0BCF1770F68D0BCF1C90F67
:100F400066D0BCF5967FCCD1207A012866D0D0B38C
:100F500045E1007E401CA07341E163713FE1A37154
:100F60003DE1E773E7710BE1017E491C49B201766F
:100F700001293CD13189B088C1EB011100EB81001E
:100F80006086E8829F4800E050E0383804F0BCFDFD
:100F90009C489E4B01AA02A9383804F0C1FCBDF957
:100FA0000410BDF9080001EBD172AAEB62010AB28C
:100FB00000EBD071ABEB610001B29248934B383833
:100FC00005E029E0E6E02DE0D5E0EDE09CE004F06E
:100FD0003BFB4FF47A7005F025FD8A48383804F061
:100FE00093FD02F0EDFAE86202F0EAFAA862686A9C
:100FF000007E02288CD13189B088C1EB011100EB51
:10100000810006E0E2E0EFE0F0E0F4E0D5E0B9E0F6
:10101000D9E06086E882E2E0A272E0E0012900D136
:101020002772DCE0012900D12672D8E0017E491C3C
:1010300049B20176491E022947D206F10C0007C8C1
:1010400005F0D0FEA8B13069401E30617069A0F291
:101050006C7070616B484830FFF7E5FA00906846A5
:10106000FFF7BCFA3069401C3061706900F26C70A7
:1010700070616448383804F047FD6248634B04AA45
:1010800003A9383804F04CFCBDF91010BDF90C0070
:1010900001EBD172AAEB62010AB200EBD071ABEBAB
:1010A000610001B25748594B383804F0CDFA4FF47B
:1010B0007A7005F0B7FC5348383804F025FD02F08B
:1010C0007FFAE86202F07CFAA862686A007E032870
:1010D00090D106F10C0007C805F084FE88B1306994
:1010E000401E30617069A0F26C70706145484830F4
:1010F000FFF799FA00906846FFF770FA03F030FCAA
:10110000EFE6686A0776ECE6017E491C49B2017693
:1011100001292BD13B48383804F0F6FC39483B4BC9
:1011200002AA01A9383804F0FBFBBDF90810BDF98B
:10113000040001EBD172AAEB62010AB200EBD0719C
:10114000ABEB610001B22F48304B383804F07CFA29
:101150004FF47A7005F066FC2A48383804F0D4FC65
:1011600002F02EFAE86202F02BFAA862686A007EAA
:10117000022834D0B5E6E27122B3677384F8307088
:10118000AF702CE0017EC06990F918201D4818301E
:10119000115424E090F9182089F800201A49D25CF3
:1011A00089F80120403904E01749027E89F80120BE
:1011B0002039C86169620F7693E699F9000099F8C1
:1011C0000110C1540BE0007E207308E021B1002023
:1011D000607218B1AF7102E00120F9E7AE7105B09D
:1011E000BDE8F04F03F0BCBBE272F8E705B0BDE824
:1011F000F04F02F0EDB956708EF8006071E6000015
:101200000800002080050020980100208DA3000820
:10121000FEE700000848416A8A88002A0AD091F94E
:101220001800431C5BB20B76934201DB00220A7666
:1012300003F0C8B970470000080000200848416A60
:101240008A88002A0AD091F91800431E5BB20B76F7
:10125000002B01DA521E0A7603F0B4B97047000081
:1012600008000020184810B5406A184C90F9180082
:10127000022803D0012811D0B8B120E0E068401E58
:10128000E0601CD11F2001E0E068401EE060D4E96E
:10129000041205F0A7FD0028F6D010E02069401EDA
:1012A00020610CD10C20206109E0606940F2E371FB
:1012B000401E6061884202DA40F633006061BDE89A
:1012C000104000F035B8000008000020C8050020DC
:1012D00070B51448144C0125406AD4E9041290F901
:1012E0001800022803D0012809D070B116E0E06888
:1012F000401CE06005F076FD80B9E5600EE0491C19
:1013000021610D290AD1256108E0521CA2F5006077
:101310006261343802D140F2E3706061BDE8704030
:1013200000F006B808000020C80500207047000043
:101330002DE9F04FA7B0FE4804F0E6FBFD4E502724
:101340000024716A4FF0280906F118050868B0F505
:10135000CE7F7DD024DC2028FBD012DCDFF8D483C4
:101360006FF00F0908F14C080C2872D004DC022839
:101370005BD00B283BD1AFE00D286BD01F2836D1B6
:1013800029E1342867D004DC2B28F9D033282ED16A
:1013900031E335287DD0A0F580709B3827D12DE230
:1013A000DFF8908340F2FF13A0F2FF1208F11A0851
:1013B00098426FD012DC40F2B913A0F2B9129842F1
:1013C00069D006DCA0F58070A53865D001280ED163
:1013D00001E1012A75D0452A09D1FDE3132A71D014
:1013E000652A70D0C82A6FD0B2F5F47F01D0D2A0A0
:1013F000F3E3D54B11AA1CA9CD4804F091FABDF92D
:101400004400402200EBD070BDF97010A2EB6000E8
:1014100002B201EBD170A7EB600001B2CA4BC44825
:1014200004F012F927B0BDE8F08FC8A001F030FE3B
:10143000002003F059F9706A90F91800C0EB001110
:10144000401C00EB800001EB4000ADF8700003E0B1
:10145000D7E13AE040E049E000242BE00023ED2210
:10146000FF2102A804F0E5FC0188ADF800108078A7
:101470008DF80200AE48009904F0A0FBBDF97000A1
:10148000362100EBD0700091A7EB600004EB8401E3
:1014900003E0FDE3FDE3B7E115E100EB410004EB00
:1014A000440100EB810001B208231722A04804F098
:1014B00076F8641C706A90F91800401CA042CDDCDC
:1014C000B0E765E2F2E3F2E3F2E30F2003F00CF998
:1014D000A1A001F0ADFE02E00F2003F005F998F99C
:1014E00002000422494601F0D1FE9BE700219EA0A4
:1014F00001F06EFE9F498E4804F04CFB687818B1ED
:10150000FF231A46194602E000231A46194613A87B
:1015100004F08FFC687818B13823A522132102E06B
:10152000FF231A4619461DA804F083FCBDF84C00A1
:10153000ADF814009DF84E008DF81600BDF874004B
:10154000ADF810009DF876008DF81200687800B1B3
:10155000012089A10091CDE9010432231A463C21E2
:101560001420039401F0E4FE687818B100231A46B1
:10157000194602E0FF231A4619461DA804F059FC3B
:10158000687818B1FF231A46194602E03823A522CD
:10159000132113A804F04DFCBDF87400ADF814003D
:1015A0009DF876008DF81600BDF84C00ADF81000DF
:1015B0009DF84E008DF81200687850B100206FA1A0
:1015C0000091CDE9010432233C211A465A200394AC
:1015D000FAE30120F3E76749554804F0DBFA68783D
:1015E00018B1FF231A46194602E000231A4619468D
:1015F0001FA804F01EFC687818B13823A522132117
:1016000002E0FF231A4619461EA804F012FCBDF89A
:101610007C00ADF814009DF87E008DF81600BDF832
:101620007800ADF810009DF87A008DF81200287847
:1016300000B10120697801B101214FA2CDE900215B
:10164000CDE9020437231A462321142001F070FE4D
:10165000687818B100231A46194602E0FF231A469B
:1016600019461EA804F0E5FB687818B1FF231A4656
:10167000194602E03823A52213211FA804F0D9FB44
:10168000BDF87800ADF814009DF87A008DF81600CA
:10169000BDF87C00ADF810009DF87E008DF81200BA
:1016A000287860B10020697859B1002133A2CDE9D2
:1016B00000213723CDE902041A4623219AE00120B4
:1016C000F1E70121F2E72B49194804F063FA687841
:1016D00018B1FF231A46194602E000231A4619469C
:1016E00020A804F0A6FB687818B13823A52213219E
:1016F00002E0FF231A46194615A804F09AFBBDF82C
:101700008000ADF814009DF882008DF81600BDF839
:101710005400ADF810009DF856008DF8120068785E
:1017200000B1012016A10091CDE901043C2329E07C
:1017300048050020080000204E6F7420696D706C11
:10174000656D656E746564008DA30008506F7765E4
:1017500072206C6576656C0045636F203C20436F9A
:101760006D666F727400000050726F6772616D6D0C
:10177000650000000D4601084F4E00004F46460030
:10178000353025001A4623211020039401F0D0FDA6
:10179000687818B100231A46194602E0FF231A465A
:1017A000194615A804F045FB687818B1FF231A46BE
:1017B000194602E03823A522132120A804F039FBA2
:1017C000BDF85400ADF814009DF856008DF81600D1
:1017D000BDF88000ADF810009DF882008DF8120071
:1017E000687848B10021FDA08DE813003C231A461B
:1017F000232103945520EBE60121F4E702F074FC69
:1018000010E602F0B7FD0DE6F649F74804F0C2F91C
:10181000706A90F9180010B1012825D048E0002224
:10182000F2A1F14803F03BFE00EBD070A7EB6000A3
:101830000094019400B20023ECA20E21029401F066
:101840000DFE0022EEA1E84803F029FE00EBD07067
:10185000A7EB60000094019400B20023E8A22321CA
:10186000029401F0FBFD23E000231A46194610A85C
:1018700004F0DFFAFF2306461A4619460FA804F0C3
:10188000D8FA3188ADF81410B1788DF816100188A7
:10189000ADF8101080788DF81200DCA0CDE90004BE
:1018A00002941E23A0220F210020039401F040FD8A
:1018B000DA49CD4804F06EF9687818B1FF231A466A
:1018C000194602E000231A46194622A804F0B1FA8C
:1018D000687818B13823A522132102E0FF231A46A5
:1018E000194621A804F0A5FABDF88800ADF8140047
:1018F0009DF88A008DF81600BDF88400ADF8100040
:101900009DF886008DF81200687800B10120C4A10E
:101910000091CDE9010428231A46412114200394A3
:1019200001F006FD687818B100231A46194602E056
:10193000FF231A46194621A804F07BFA687818B1EB
:10194000FF231A46194602E03823A522132122A8B4
:1019500004F06FFABDF88400ADF814009DF886001D
:101960008DF81600BDF88800ADF810009DF88A00CB
:101970008DF81200687848B10020AAA10091CDE945
:10198000010428231A4641210394F0E30120F4E7DF
:101990009449954804F0FEF80022A3A1924803F070
:1019A0007EFDADF8180000EBD070A7EB600000944E
:1019B000019400B200239CA22821029401F04EFD64
:1019C0009EA3A0A2A2A116A8FEF760FC002216A961
:1019D000854803F064FDADF8180000EBD070A7EB6C
:1019E00060000094019400B2002316AA3C210294E6
:1019F00001F034FD16E591F91800032801DD0425F6
:101A000000E00025DFF8E081934F08F1380838E165
:101A10004FF0000304291A46194614A871DA04F09D
:101A200008FA0188ADF8001080788DF802006E4841
:101A3000009904F0C3F81923322200216A48CDF836
:101A4000009003F0ACFDFF231A46194614A804F0D9
:101A5000F0F90188ADF8001080788DF80200624836
:101A6000009904F0ABF87D4B332288215E4803F0E7
:101A7000EBFD08EB0500417C072900D94474FF23E6
:101A80001A46194614A804F0D4F90188ADF80010DC
:101A900080788DF802005448009904F08FF851497D
:101AA000514804F077F800231A4619461BA804F0A1
:101AB000C0F9FF2382461A46194614A804F0B9F962
:101AC000BAF80020ADF814209AF802108DF816101C
:101AD0000188ADF8101080788DF8120057F83500A5
:101AE000CDE9000407EBC50002940394C088012DE2
:101AF00000DDC01E01B207EBC50080880A38B6E0E1
:101B0000FFE704F096F90188ADF8001080788DF8B1
:101B100002003548009904F051F81423322289213B
:101B20003148CDF8009003F03AFDFF231A461946DC
:101B300014A804F07EF90188ADF8001080788DF8C3
:101B400002002948009904F039F8444B3322843BC1
:101B50000B21254803F078FD08EB0500417C07299F
:101B600000D94474FF231A46194614A804F061F9F9
:101B70000188ADF8001080788DF802001A480099AD
:101B800004F01CF81749184804F004F800231A461A
:101B900019461BA804F04DF9FF2382461A46194640
:101BA00014A804F046F9BAF80020ADF814209AF809
:101BB00002108DF816100188ADF8101080788DF89D
:101BC000120057F83500CDE9000407EBC500029478
:101BD0000394052DC08843E061E0C6E33130302531
:101BE000000000000F63010848050020526573657E
:101BF0007420616C6C206465766963650000000088
:101C000073657474696E67733F00000041726520EC
:101C1000796F7520737572653F0000000D460108ED
:101C2000596573004E6F000043757272656E7420C3
:101C30006669726D776172650000000031322E3482
:101C40002E36000076657273696F6E3A20000000D0
:101C50002573257300000000AC93000854D40008DD
:101C600000DDC01E01B207EBC5008088401D00B238
:101C70000F23242201F05CFBFC49FD4803F08AFF9E
:101C80006D1C706A90F91810032903DD072002E02B
:101C900031E386E10420A8423FF7BAAE10E491F99F
:101CA0001800042805DA6FF0040103E02FE3F5E3E0
:101CB000A7E3092198F9000007280AD2DFE800F01D
:101CC00004065A5C5E606200EAA000E0EBA001F04E
:101CD0007FFAE649E64803F05DFF706AE44D4FF095
:101CE000000390F91800493504281A4619466CDAA1
:101CF0001BA804F09EF80188ADF8001080788DF8DC
:101D00000200DB48009903F059FF19233222002119
:101D1000D748CDF8009003F042FCFF231A4619463D
:101D20001BA804F086F80188ADF8001080788DF8C3
:101D30000200CF48009903F041FFD24B33228821A3
:101D4000CB4803F081FC0024B14604EBC40000EB57
:101D500004104FF01E0B0BEB400000260FFA80FA28
:101D6000D9F8240006EB440190F9180003280BDD94
:101D700004230AE0C4A0AAE7C6A0A8E7C8A0A6E773
:101D8000C9A0A4E7CBA0A2E70023CF1806EBC601A9
:101D900001EB06110BEB41010FFA81F8B84203D1B8
:101DA000FF231A46194602E000231A46194625A8C1
:101DB00004F03FF8D9F8240090F91800B84205D192
:101DC0003823A522132104E0ADE343E0FF231A46A4
:101DD000194624A804F02DF8BDF89400ADF81400BD
:101DE0009DF896008DF81600BDF89000ADF8100033
:101DF0009DF892008DF81200B048022190F9000081
:101E0000405DB84201D1012200E00022D9F824004F
:101E100090F91800B84201D1012300E00023A7483F
:101E2000363050F82700CDE90003CDE9022116B184
:101E300008F1050000E04046232300B21A4651464F
:101E400001F076FA761C022E8ADB641C022CFFF667
:101E50007CAFD5E424A803F0ECFF0188ADF80010B6
:101E600080788DF802008248009903F0A7FE1423C1
:101E7000322289217E48CDF8009003F090FBFF23A9
:101E80001A46194624A803F0D4FF0188ADF80010C3
:101E900080788DF802007648009903F08FFE794B28
:101EA0003322843B0B21724803F0CEFB0024B14661
:101EB000002604EBC4001E2100EB041001EB4000DF
:101EC0000FFA80FA4FF0020BD9F8240006EB440217
:101ED00090F91800032801DD042300E00023D7183F
:101EE00006EBC60202EB06132D2202EB43020FFAA9
:101EF00082F8B84203D1FF231A46194602E00023B4
:101F00001A46194626A803F094FFD9F8240090F940
:101F10001800B84203D13823A522132102E0FF2381
:101F20001A46194625A803F084FFBDF89800ADF8BD
:101F300014009DF89A008DF81600BDF89400ADF8D5
:101F400010009DF896008DF812005C4890F9000092
:101F5000405DB84201D1012100E00021D9F8240000
:101F600090F91800B84201D1012300E00023534842
:101F7000363050F82700CDE90003CDE9021B16B139
:101F800008F1050000E04046232300B21A465146FE
:101F900001F0CEF9761C022E96DB641C022C87DB46
:101FA0002EE4087E50B1072198F9010008280DD2CF
:101FB000DFE800F007091A1C1E2022246FF006013A
:101FC000F2E73FA000E041A001F002F927492848CC
:101FD00003F0E0FD98F90100072811DA3E4900EB13
:101FE000400001EBC0050DE03CA0EDE73EA0EBE7B3
:101FF00040A0E9E742A0E7E744A0E5E746A0E3E721
:102000001B4D5035706A4FF000031A46007E19468A
:1020100000281BA829D003F00CFF0188ADF80010A0
:1020200080788DF802001248009903F0C7FD142350
:10203000322289210E48CDF8009003F0B0FAFF2338
:102040001A4619461BA803F0F4FE0188ADF80010EB
:1020500080788DF802000648009903F0AFFD094B27
:102060003322843B0B2102485AE081E00F630108D0
:10207000480500204D6F6E646179000054756573EA
:102080006461790054D400085765646E65736461B7
:102090007900000054687572736461790000000073
:1020A0004672696461790000536174757264617984
:1020B0000000000053756E6461790000220000206A
:1020C00050524553455420310000000050524553B2
:1020D0004554203200000000E4930008505245535C
:1020E00045542033000000005052455345542034DD
:1020F00000000000505245534554203500000000B8
:10210000505245534554203600000000505245536C
:102110004554203700000000435553544F4D0000F4
:1021200003F092FA0027A346002407EB47001C2186
:1021300000EBC70001EB400007EB470A0FFA80F9FC
:10214000F9480AEB0401406A007E00B10C200E1829
:10215000282000EB44183246F4A107A8FEF796F8B1
:10216000A85D03287ED94FF00100A8558FE03FE21B
:1021700003F05FFE0188ADF8001080788DF8020052
:10218000EB48009903F01AFD192332220021E84898
:10219000CDF8009003F003FAFF231A4619461BA856
:1021A00003F047FE0188ADF8001080788DF802003A
:1021B000DF48009903F002FDDE4B33228821DC4822
:1021C00003F042FA0027A34607EB4700002400EB88
:1021D000C7011C2000EB410007EB470A0FFA80F90A
:1021E000D1480AEB0401406A007E00B10C200E18B1
:1021F000192000EB44183246CCA107A8FEF746F898
:10220000A85D032803D94FF00100A85505E004D1CB
:102210004FF0FF031A46194603E04FF000031A4639
:10222000194623A803F005FEA85DC14A00EB400152
:10223000B93A114403280A88ADF8142089788DF83A
:102240001610BDF88C10ADF810109DF88E108DF89A
:10225000121015D0002207A9CDE9001BCDE902B26A
:10226000142300E00EE01E2249460FFA88F001F028
:102270005FF8641C032CB3DB7F1C042FA4DB0DE58B
:102280000222E8E703D1FF231A46194602E00023A1
:102290001A46194624A803F0CCFDA85DA44900EB1A
:1022A0004002B939114403280A88ADF8142089780E
:1022B0008DF81610BDF89010ADF810109DF8921022
:1022C0008DF8121015D0002107AACDE9002BCDE919
:1022D00002B114231E2249460FFA88F001F028F8B3
:1022E000641C032CFFF62CAF7F1C042FFFF61CAFE1
:1022F000D4E40221E8E70F2002F0F6F900218EA0D5
:1023000000F066FF4FF0FF3002F05CF9C6E40020F9
:1023100002F0EAF9706A312490F9180058B10128E6
:1023200024D002283ED0874B11AA06A9804803F08A
:10233000F7FAB0B363E0844B11AA06A97C4803F016
:10234000EFFA88B9BDF94400BDF9181000EBD07060
:10235000A4EB600002B201EBD170A7EB600001B208
:10236000794B734803F070F978A0D9E1794B11AA41
:1023700006A96F4803F0D4FA88B9BDF94410BDF935
:10238000180001EBD171A4EB610100EBD0700AB22F
:10239000A7EB600001B26F4B654803F055F96EA0E2
:1023A000BEE11AE06D4B11AA06A9614803F0B8FA24
:1023B00088B9BDF94400BDF9181000EBD070A4EB4A
:1023C000600002B201EBD170A7EB600001B2634B79
:1023D000574803F039F962A0A2E1BDF94400BDF904
:1023E000181000EBD070A4EB600002B201EBD170CA
:1023F000A7EB600001B2534B4D4803F025F95BA0F9
:102400008EE15B494A4803F0C5FB28784FF0000293
:1024100058B158A1464803F042F800EBD070A7EB42
:10242000600001B253A300940AE055A1404803F0B4
:1024300036F800EBD070A7EB600001B250A3009417
:102440000A223B4803F08EFB002250A1384803F0DB
:1024500026F800EBD070A7EB600001B24BA31B2263
:102460003348009403F07EFB00224BA1304803F078
:1024700016F800EBD070A7EB600001B248A32C2245
:102480002B48009403F06EFB4749294803F082FB78
:10249000687820B1FF231A46194603E0AEE0002316
:1024A0001A4619460FA803F0C4FC687818B13823FF
:1024B000A522132102E0FF231A46194610A803F0B3
:1024C000B8FCBDF83C00ADF814009DF83E008DF856
:1024D0001600BDF84000ADF810009DF842008DF8E0
:1024E0001200687800B10120AFF6CC010091CDE96F
:1024F000010428231A4646211420039400F018FFF3
:10250000687818B100231A46194602E0FF231A46DC
:10251000194610A803F08DFC687818B1FF231A46FD
:10252000194646E042E064E008000020256400000F
:102530004805002054D40008435553544F4D2032D1
:1025400034680000AFF00008809A0008436F6D66A1
:102550006F727400449D000845636F00839F0008FC
:10256000416E74692D66726F737400004F66660069
:102570000F630108537769746368206F6666000013
:10258000537769746368206F6E0000006D69636142
:10259000746865726D6963006865617465720000D6
:1025A0006865617465723F000D4601083823A522F5
:1025B00013210FA803F03DFCBDF84000ADF8140056
:1025C0009DF842008DF81600BDF83C00ADF81000F3
:1025D0009DF83E008DF81200687868B10020AFF6D3
:1025E000BC110091CDE9010428231A464621039429
:1025F000692000F09DFE2CE40120F0E7087E5224C3
:1026000038B14A4B11AA06A9494803F089F9A8B183
:1026100024E0484B11AA06A9454803F081F9E8B91E
:10262000BDF91800BDF9441000EBD070C1F12D01C7
:102630000AB2A4EB600001B23E4B0CE0BDF91800F9
:10264000BDF9441000EBD070C1F12E010AB2A4EB29
:102650006000364B01B2364802F0F6FF706A26255C
:102660002424007E012807D0334B11AA06A9304844
:1026700003F056F9A8B124E0304B11AA06A92C4862
:1026800003F04EF9E8B9BDF944002C4B00EBD070D3
:1026900005EB600002B2BDF91800C0F1410001B2C3
:1026A0000CE0BDF94400244B00EBD07004EB60005B
:1026B00002B2BDF91800C0F1410001B21C4802F09D
:1026C000C3FF706A007E022807D01D4B11AA06A91D
:1026D000174803F025F980B11EE01A4B11AA06A98C
:1026E000134803F01DF9B8B9BDF94400154B00EBD0
:1026F000D07005EB600002B207E0BDF94400104B5A
:1027000000EBD07004EB600002B2BDF818003C3062
:1027100001B2074802F098FF706A007E18B10AA063
:1027200000F0B6FC3CE40BA0FAE70000A61D01088F
:10273000480500201D2101085C240108FC25010832
:102740007F2701086D290108557365206F6E6C792C
:102750000000000055736520626F7468000000007F
:1027600070B5FF4D8CB0696A00297DD1FD4C012800
:102770001FD0A4F1380003F0C7F9FF231A46194609
:1027800008A803F056FB0188ADF8001080788DF89A
:102790000200F4480099383803F010FAE07B6FF03B
:1027A0000F0228B301282DD002283BD0032879D16D
:1027B00044E000231A46194601A803F03AFB0188B9
:1027C000ADF8001080788DF80200E648009938389E
:1027D00003F0F4F9607808B1462000E03220009060
:1027E000E048642314223221383802F0D8FEC4E7CE
:1027F00004F07CF9617801B10022072100F046FD68
:10280000D94B08E004F072F9617801B10022072188
:1028100000F03CFDD54B0C221421D248383802F090
:1028200013FF3FE004F062F9617801B10022072153
:1028300000F02CFD0C22CE4B1521EEE7C948CD4B04
:102840001C224B21383802F0FFFEC648CA493838EE
:1028500003F0A0F900231A4619460AA803F0E9FA82
:10286000FF2306461A4600E0BAE1194609A803F01C
:10287000E0FA01463088ADF81400B0788DF8160003
:102880000888ADF8100088788DF812000020BBA1F0
:10289000CDE900100290039014233C2255214020E2
:1028A00000F046FD607810B102287DD077E1E07B32
:1028B0000328FBD0287C142809D0AA48B04B07AACB
:1028C00006A9383803F02CF800286ED000E1207BF0
:1028D0001D2502286AD2A348AA4B07AA06A93838A0
:1028E00003F01EF8C0BB00231A46194602A803F0E5
:1028F000A0FA0188ADF8001080788DF802009948A0
:102900000099383803F05AF996481D2356223F2182
:102910003838009502F043FEFF231A46194602A8F4
:1029200003F087FA0188ADF8001080788DF8020076
:102930008C480099383803F041F9BDF91C00914BDF
:10294000C0F1730002B2BDF91800C0F15B0001B222
:102950008448383802F078FE00231A46194601A848
:1029600003F067FA0188ADF8001080788DF8020056
:102970007C480099383803F021F91B2000907948F1
:10298000082357225D21383802F009FE0023ED228A
:10299000FF2101A803F04DFA0188ADF800108078FE
:1029A0008DF802006F4802E09CE082E018E03838C1
:1029B000009903F003F96B480D26062366225D217A
:1029C0003838009602F0EBFDA07B02281FD1654845
:1029D000062357225D213838009602F0E0FD16E00C
:1029E0006048674B07AA06A9383802F099FF70B90A
:1029F000BDF91C00624BC0F1730002B2BDF91800B2
:102A0000C0F1630001B25748383802F01DFE207B48
:102A1000022800D0E0BB53485B4B07AA06A9383810
:102A200002F07EFF002843D100231A46194601A870
:102A300003F0FFF90188ADF8001080788DF80200EE
:102A400048480099383803F0B9F8464824235622FC
:102A500071213838009502F0A2FDFF231A4619466D
:102A600001A803F0E6F90188ADF8001080788DF830
:102A700002003C480099383803F0A0F8BDF91C006A
:102A8000414BC0F1730002B2BDF8180056300AE0A5
:102A90001EE000BFBDF91C003C4BC0F1730002B248
:102AA000BDF81800543001B22E48383802F0CCFD81
:102AB00075E0BDF91C00324BC0F1730002B2BDF9E4
:102AC0001800C0F1630001B22648383802F0BCFD9E
:102AD00024482E4B07AA06A9383802F021FF002807
:102AE000D8D05CE0E07B032859D0287C0526142848
:102AF000E978686A40EA010001D078B34FE070BB22
:102B00000023ED22FF2101A803F093F90188ADF81D
:102B1000001080788DF8020012480099383803F0D0
:102B20004DF8104839236E2214213838009602F0EF
:102B300036FDA07B022810D064231A46194602A84D
:102B400003F077F90188ADF8001080788DF8020065
:102B500004480099383803F031F819E042E01EE0EB
:102B600008000020800500207DDD00082EDA000826
:102B700071DB00089DF400080D4601084F666600F1
:102B80005A2C0108392B0108502F0108C22D0108C9
:102B900039236E2255212748009602F000FD207C43
:102BA00058B1E07B032808D06078022832D0572241
:102BB000214B14211F4802F047FD94F830000128F2
:102BC0002AD0E07901280BD1E07B03282CD0607853
:102BD00002282CD03022194B1421164802F034FD63
:102BE0000CB070BD64231A46194601A803F021F900
:102BF0000188ADF8001080788DF802000D4800992A
:102C000002F0DCFF39236E2214210A48009602F0FC
:102C1000C6FCA2E74E22CBE76078022802D0312220
:102C2000074BD9E72D22FBE7044B4A22D4E72D229C
:102C3000D1E70000480500204DD80008ACD60008B8
:102C4000D8D40008F0B59A4E87B0706A00286ED0CC
:102C5000806838B3974802F057FF706A816890F92E
:102C6000180001EB40100068A0F50071C73902D0D0
:102C7000002001F039FD706A816890F9180001EBBD
:102C800040108C49006838312B286FD025DC0B2888
:102C900071D00CDC07284AD2DFE800F04954575FB6
:102CA00062656A0007B0BDE8F040FEF741BB20282E
:102CB00071D00BDC0C2861D00D2862D01F2836D1D2
:102CC00091F8300000285FD07B4D5EE0292872D05B
:102CD0002A282CD1794D7AA493E040F2A513A0F2D2
:102CE000A51298427CD016DC352861D00ADC2C284D
:102CF0006DD0332852D0342819D1C879002850D04B
:102D0000714D4FE0A0F580709B3866D001280ED140
:102D10006E4D6FA475E0BE2A68D009DC012A62D02E
:102D2000142A57D0152A02D16C4D6DA469E083E0B6
:102D3000BF2A5ED0B2F5917F7ED1087A00285BD0A1
:102D40006A4D5AE06A4D6BA45BE04878022802D0D5
:102D50006B4D6CA455E06E4DFBE76E4D6EA450E0DC
:102D6000724D73A44DE0744D74A44AE026E002E075
:102D7000754D76A445E0784D78A442E0794D7AA46B
:102D80003FE07A4D7AA43CE07C4D01D07CA438E051
:102D90007EA436E0FFE7814D81A432E0834D84A418
:102DA0002FE0854D01D085A42BE085A429E002E029
:102DB000844D85A425E0874D87A422E0887A08B158
:102DC000884D00E0884D89A41BE009E0FFE7894DAC
:102DD00089A416E08A4D8BA413E05B4D8BA410E010
:102DE0008D4D8EA40DE0904D90A40AE0934D94A4D7
:102DF00007E0484D95A404E0964D01D096A400E06C
:102E00009AA4EDB32B4604AA03A92A4802F088FD30
:102E10005127A0B9BDF91010BDF90C0001EBD1711B
:102E20003122A2EB610100EBD0700AB2A7EB600087
:102E300001B22B461F4800E037E002F005FC706A43
:102E4000816890F9180001EB40100068202824D117
:102E50008B49184802F09EFEF18A3C20B1FBF0F24B
:102E600000FB1213B1FBF0F286A105A8FDF70EFAE4
:102E7000002205A90F4802F012FB0021009100E09A
:102E80000BE000EBD0700191A7EB60000B460291C4
:102E900000B205AA262100F0E1FA002C05D007B007
:102EA0002046BDE8F04000F0F3B807B0F0BD0000E8
:102EB0000800002048050020F1AE0008ECC500081D
:102EC000446973706C6179005EE60008470201088E
:102ED0005365742074696D6500000000BCF700083C
:102EE000496E666F726D6174696F6E00D515010869
:102EF0008C94000848656174206D6F646500000063
:102F000022970008506F776572206D6F646500002E
:102F10004AA70008B80F010848656174696E672008
:102F2000656C656D656E7473000000003CA9000857
:102F300054696D6572000000FCB10008536574743B
:102F4000696E6773000000007CB6000850726F67FE
:102F500072616D6D65000000809A0008436F6D66B8
:102F60006F727400449D000845636F00839F0008E2
:102F7000416E74692D66726F737400007EAC000838
:102F800054696D6572206973206F6E0054696D65B8
:102F900072206973206F6666000000009E050108BC
:102FA0005365742074696D65720000003BDF000892
:102FB000536574757000000053E200084F6E000006
:102FC0004F6666006CEA0008437573746F6D206489
:102FD0006179000030B900084461746520262074CE
:102FE000696D650007BD000864C00008536F756E09
:102FF00064000000BFEC00085365727669636500E9
:1030000017FB000852657365740000005365742057
:10301000646174650000000070D000084272696746
:1030200068746E657373000004CA00084175746F9C
:1030300020737769746368206F6666004A1201081E
:103040004F70656E2077696E646F770048656174B4
:10305000696E6700B91901084D696361746865722A
:103060006D6963206973204F6E0000004D696361D4
:10307000746865726D6963206973204F666600002D
:103080000D460108253032643A25303264000000D4
:103090007CB5FF2306461A46194601A802F0C9FE70
:1030A0000188ADF8001080788DF80200354800994D
:1030B00002F084FD3449334802F06CFD33480024AB
:1030C0005025406A816890F9180001EB40100068B3
:1030D000032811D0A0F50070C73822462AD0314607
:1030E000284802F0DCF900EBD070A5EB600001B2DB
:1030F00033466222009440E0002225A1214802F0DC
:10310000CEF900EBD070A5EB600001B220A35622EF
:103110001C48009402F026FD00221FA1194802F06D
:10312000BEF900EBD070A5EB600001B21AA36822D3
:10313000009422E01BA1134802F0B1F900EBD0701B
:10314000A5EB600001B217A354220E48009402F0D0
:1031500009FD0C483830007A08B115A600E018A621
:1031600000223146074802F09AF900EBD070A5EB37
:10317000600001B2334666220094024802F0F2FC7D
:103180007CBD0000480500200F63010808000020F6
:1031900048656174696E6700656C656D656E747312
:1031A000000000004D696361746865726D696300B9
:1031B000686561746572206973204F6E00000000BD
:1031C000686561746572206973204F66660000004F
:1031D0007CB5FF230D4604461A46194601A802F0A5
:1031E00028FE0188ADF8001080788DF802000E48A6
:1031F000009902F0E3FC0D490B4802F0CBFC0022E1
:103200002146094802F04BF90021009100EBD070F3
:103210005021A1EB6000284401B223460A22024853
:1032200002F0A0FC7CBD0000480500200F630108EF
:103230001CB5FF2304461A46194601A802F0F9FD01
:103240000188ADF8001080788DF802000D480099D3
:1032500002F0B4FC0C490B4802F09CFC0022214611
:10326000084802F01CF90021009100EBD0705021B9
:10327000A1EB600001B223460A22024802F072FC70
:103280001CBD0000480500200F630108F0B5FF23B6
:1032900087B017460D4604461A46194606A802F09E
:1032A000C8FD0188ADF8001080788DF802001A483A
:1032B000009902F083FC224618A101A8FCF7E6FF62
:1032C0001749154802F066FC002201A9124802F0D5
:1032D000E6F8044600EBD4705021A1EB60000544F1
:1032E000002607F128026D1D01AB174629B20A48D6
:1032F000009602F037FC0B49074802F04BFC2819F6
:1033000001B20C4608A33A460348009602F02AFC94
:103310000648848307B0F0BD4805002025640000FE
:10332000C9300108B53C0108B04300000800002086
:103330002DE9FF4F8BB09346DDE91C54DDE91817EA
:10334000994600224448DDF86CA002F0A8F80490E9
:10335000414802F074F980460B990BEBDB7204983C
:1033600001EB620100EBD070A1EB600000B20290B3
:103370000C9909EBD97201EB620108EBD870A1EB53
:10338000600000B201900FB1294600E021463248AA
:1033900002F014FCCDF80090DDE90B125B462E48DC
:1033A00002F0FDF847B121462B4802F007FCBAF1C4
:1033B000000F1AD017B119E02946F5E7002611E0F1
:1033C000704209EB40010BEB400003B20C9809B2CC
:1033D000304402B20B980091304401B21E4802F012
:1033E000B6F8761C5645EBDB02E00FB1294600E04B
:1033F0002146194802F0ECF800200090DDE9012197
:103400001548189B02F0AEFB1A9878B10FB321460D
:10341000114802F0D3FB032000900198049B404424
:10342000801E02B20C48029902F0B9F800231A4635
:10343000194609A802F0FDFC0188ADF8001080785B
:103440008DF802000448009902F0C2F80FB0BDE800
:10345000F08F2946DCE70000480500202DE9FF4FEA
:1034600083B01C00DDE91187DDF840B00E468246CE
:1034700003D0FF231A46194602E000231A461946D4
:1034800001A802F0D6FC3948019902F097FB00220E
:103490003648059902F003F88146344802F0CFF827
:1034A000054600EB470000B2009009EB480003B26C
:1034B000F01B02B2AAEB080001B22C4802F06FF830
:1034C00074B100231A46194601A802F0B2FC27483D
:1034D000019902F073FB3CB1FF231A46194606E03E
:1034E000FF231A461946EFE700231A46194601A89A
:1034F00002F09FFC1D48019902F06AF8002000903C
:10350000324651461948059B02F02CFBBBF1000FD7
:1035100014D034B300231A46194602A802F089FCDD
:103520001248029902F04AFB042000907019401DD5
:1035300002B24B4651460D4802F031F800231A46BC
:10354000194601A802F075FC0188ADF800108078DA
:103550008DF802000548009902F03AF807B0BDE87E
:10356000F08FFF231A461946D7E7000048050020D0
:1035700010B5104C0020A07100F022F8216B884299
:1035800016D9607980F00100607100F019F800F53B
:10359000FA702063084802F0B7FA6079002807D073
:1035A0002322BDE81040054B3421034802F04CB8FB
:1035B00010BD000008000020480500203F0701085A
:1035C000014800687047000000000020FEE7FEE7A9
:1035D000124830B482214182416ACA69D2B10B6873
:1035E00000F11801332B0AD0A3F58074B93C02D145
:1035F00000230B704B70426230BCFFF723BB084BBB
:10360000DC79002CF7D1074C4462E261D87908706C
:103610004870F1E730BC00F041BA0000080000201B
:1036200080050020D801002070470907090E0028F6
:1036300006DA00F00F0000F1E02080F8141D70475A
:1036400000F1E02080F80014704700000448417841
:1036500019B100214170FDF76BBE0121FAE70000AE
:10366000200000200448417819B100214170FDF785
:103670005FBE0121FAE70000200000207047000033
:1036800070B53E4800223E49436A18301C68352C0C
:1036900056D01DDC1F2C43D010DC022C35D037480F
:1036A0004C300B2C34D0032207230C2C36D00D2C9D
:1036B00003D1897981700270437070BD202C32D0A3
:1036C0002B2C3FD0332C3BD0342CF6D1C9793AE0A7
:1036D00040F2B916A4F2B915B4424BD00BDCA4F5F4
:1036E00080749B3C2CD0012C2AD00A2C30D00B2C7F
:1036F000E3D1C97A27E0452D22D0AB2D25D0B5F5F1
:10370000877FDAD1097A017035E0887B401E1DE0A1
:10371000097981700A210170232129E04979C9E7DB
:1037200091F830100FE04C8E3C21B4FBF1F51448B9
:1037300048308560B4FBF1F501FB1541C0E900217B
:103740001A7670BD897A017012E0087B187670BD18
:10375000497A002907D000BF4FF00001017005D160
:103760004FF0010104E04FF00101F7E74FF00001D5
:10377000417070BD1A76427070BD000008000020D4
:103780008005002070B51F4C01200025A070E57059
:103790000521A1711821217104216171E571207247
:1037A0000221A173627822B1012A04D0022A06D133
:1037B00004E0257303E02173A07300E02073E57338
:1037C0006573257484F830504FF434716186A072AB
:1037D0006072E57203206074A074E07420756075F7
:1037E000A075E0750748012218211830FCF7EEFE9D
:1037F0006563A563E5632564BDE87040142001F0AE
:1038000021BA000080050020704710B503F012F9BE
:10381000BDE8104000F0A4B8484810B546494160E2
:10382000474A426081608260016941F02001016184
:10383000016941F040010161C168C907FCD101691A
:1038400021F020010161016941F010010161C169AC
:1038500011F0060F3B490AD0C269C2F34102012AA6
:1038600007D0C269C2F34102032A04D005E0A522B1
:1038700002E0BB2200E0CC220A80C169DF2202EA1A
:103880001121304A921C1180C169921CC1F3074179
:103890001180C169090E921C1180016A921CC9B283
:1038A0001180016A921CC1F307211180016921F086
:1038B000100101612448016841F47001016023484E
:1038C000016841F00101016001688907FCD5416888
:1038D0001F4A1140416041681E4A11404160016821
:1038E0001D4A11400160C16A1C4A1140C162016B4E
:1038F00040F2031291430163016B21F480310163B3
:10390000016B21F000410163416B21F00101416332
:10391000D0F8C01021F48031C0F8C01000218160BF
:10392000C0F8CC1004F0B6FBBDE8104000214FF009
:10393000006004F0F1B90000230167450020024057
:10394000AB89EFCD00F8FF1F88ED00E000100240CA
:103950000C00FF08FFFFC277FFFFF2FEF0FFFF3F02
:1039600002480168491C0160704700000000002007
:1039700010B5084C0121204604F0CBFD012807D1E9
:103980000121204604F0C2FDBDE8104000F004B85B
:1039900010BD0000002000407047000006488178FC
:1039A000491E49B2817090F90020914201DA4178B4
:1039B0008170FDF7BDBC00005400002006488178EE
:1039C000491C49B2817090F90120914201DD0178D2
:1039D0008170FDF7ADBC000054000020154830B4E4
:1039E000426A154892F91840D0E9011314B1012C2C
:1039F0000FD018E05B1E83601268202A00D123B12B
:103A0000002B10DA172181600DE061B901214160BE
:103A100009E0491E416014683B22202C00D12BB1E3
:103A2000002900DA426030BCFDF782BC0129F9DBD5
:103A3000F9E7000008000020C8050020F0B4144891
:103A400000250124436A134893F91860D0E9011254
:103A500016B1012E0CD014E0521C8260172A00DD32
:103A600085601A68202A0CD1826852B971B108E0C9
:103A7000491C41601B68202B00D12AB13B2900DD85
:103A80004560F0BCFDF754BC3B29FADD4460F8E723
:103A900008000020C8050020FEE70000034882213E
:103AA0004182002141620846FEF75ABE080000200C
:103AB00010B500214FF4807002F086FF0121084606
:103AC00002F0A8FE07220821002002F01FFF0121BA
:103AD000022002F079FF002002F05AFF012108467F
:103AE00002F0D0FE4FF46021012002F0E9FE002038
:103AF00002F0AEFE02F0BAFE0A2002F093FF02F0DE
:103B000077FEBDE81040012002F04EBF10B50B4C0F
:103B100000220949204603F0A5F80022812311461E
:103B2000204603F04AF9204603F01DF92046BDE87F
:103B30001040012103F081B8801A060000540040B3
:103B40002DE9F0412B4C01262B4DA079022802D102
:103B5000A87800B10026FFF733FDA062E8780027BF
:103B60004FF0010838B3A87800282348A0F13800A6
:103B700005D002F011FB687A80B1A77110E002F065
:103B80000BFB687A08B1A77101E084F806808220F7
:103B9000608200F093FF0020BDE8F08184F8068089
:103BA00000F08CFFFFF70CFDA0F5D2407838A06242
:103BB000E8780026B0B9A878A0B1E87A40B1A07939
:103BC000022805D10020FEF7CBFDFFF7F9FCA0632A
:103BD0000948383802F0E0FA687A08B1A77101E0C4
:103BE00084F80680FFF7ECFC41F288310844A063BA
:103BF0003046D1E7080000208005002010B540F2D3
:103C0000115004F01DFA40F2125004F019FA40F27B
:103C10000E7004F015FA40F2117004F011FA40F23F
:103C2000126004F00DFA40F2017004F009FA40F25B
:103C3000096004F005FA40F2157004F001FA40F250
:103C40001C7004F0FDF9BDE81040062004F0D2B865
:103C500030B503461046064C07E013F8015BC2B2CC
:103C60006A4054F8222082EA1020491EF5D230BD65
:103C7000AC8F000870B5364C01230022032120468A
:103C800002F07CFF20220121204602F045FF202384
:103C900000220221204602F071FF2023032200218E
:103CA000204602F08DFF10220121204602F034FF51
:103CB000022210231146204602F060FF002210234A
:103CC0001146204602F07CFF4FF09046FF23002271
:103CD0000121304602F052FF0022FF2311463046F8
:103CE00002F06EFF4FF472752B4600220121204630
:103CF00002F044FF00222B461146204602F060FFEE
:103D00004FF4007422460421304602F005FF65009E
:103D10002A460421304602F0FFFE234601220221FA
:103D2000304602F02BFF234603220121304602F0E9
:103D300047FF2B4601220221304602F01FFF2B468F
:103D40003046BDE870400322012102F039BF000077
:103D5000000400482DE9F043002391B01A461946AB
:103D60000BA802F066F80188ADF8001080788DF895
:103D70000200C448009901F02BFCFF231A461946A3
:103D80000BA802F056F80188ADF8001080788DF885
:103D90000200BC48009901F011FFBA4800253830F4
:103DA000B94C407A012608B1A57100E0A671B5486A
:103DB00001F0AAFEB34802F0EFF982276782B34B05
:103DC0000DAA0CA9AF4801F0ABFD98B9BDF93410AC
:103DD0003B2201EBD171BDF93000A2EB61010AB2C7
:103DE00000EBD0705521A1EB600001B2A74BA548B4
:103DF00001F02AFC4FF4FA69484602F013FEA1488C
:103E000001F082FE9F486782C838B846B0F80F10AC
:103E1000ADF80010407C8DF802009A48009901F03E
:103E2000CDFE9B49974801F0B5FE002299A1954827
:103E300001F035FB00EBD0705027A7EB600001B21A
:103E400094A314228F48009501F08CFE002294A1C7
:103E50008C4801F024FB00EBD070A7EB600001B2AE
:103E60008FA328228748009501F07CFEFF231A4685
:103E700019460BA801F0DDFF0188ADF8001080782D
:103E80008DF802007F48009901F098FE002287A17A
:103E90007C4801F004FB00EBD070A7EB600001B29E
:103EA00082A346227748009501F05CFE7849754868
:103EB00001F070FE82A384A284A106A8FCF7E6F9B3
:103EC000002206A96F4801F0EAFA00EBD070A7EBD8
:103ED000600001B206AB64226A48009501F042FE20
:103EE000484602F09FFDA4F812806562A56300F0C9
:103EF00011FC10F17F0F2ED07F2856D030287DDDA9
:103F0000002000F09FFE0320E0702079002876D189
:103F100026715C4801F0F8FD6E495A4801F03AFEFE
:103F200000231A4619460FA801F083FFFF23044619
:103F30001A4619460EA801F07CFF2188ADF814102E
:103F4000A1788DF816100188ADF8101080788DF8E2
:103F5000120061A057E0002000F074FEE6702079A6
:103F600000285AD12671474801F0CEFD59494548ED
:103F700001F010FE00231A4619460FA801F059FF60
:103F8000FF2304461A4619460EA801F052FF218865
:103F9000ADF81410A1788DF816100188ADF8101046
:103FA00080788DF812004DA02DE0002000F04AFE30
:103FB0000220E070207900282FD12671314801F0CD
:103FC000A3FD44492F4801F0E5FD00231A46194698
:103FD0000FA801F02EFFFF2304461A4619460EA82B
:103FE00001F027FF01462088ADF81400A0788DF875
:103FF00016000888ADF81000887801E010E00CE0A9
:104000008DF8120036A0CDE900050021029580232D
:10401000A02208460395FFF78BF911B0BDE8F083A5
:1040200010F11A0F4FF0000029DA00F00BFE042007
:10403000E07020790028F0D12671124801F064FD6B
:104040002449104801F0A6FD00231A4619460FA87E
:1040500001F0EFFEFF2304461A4619460EA801F0B0
:10406000E8FE2188ADF81410A1788DF816100188AB
:10407000ADF8101080788DF812001AA0C3E7FEF793
:104080006FFBCAE74805002008000020EB0B010881
:104090000F630108496E6E6F766174696F6E73000D
:1040A000696E2068656174696E670000456C6563C0
:1040B00074726F6E696320636F6E74726F6C000050
:1040C00031322E342E360000562E00002573257313
:1040D00000000000C93001084533000045310000F0
:1040E000453200004534000070B5934C8CB093A16C
:1040F0000AA8E268FCF7CAF890A10BA82269FCF7AD
:10410000C5F890A108A86269FCF7C0F88F49A4F12E
:10411000800001F03FFD002208A9A4F1800001F019
:10412000BEF98B4CC6B2606A007E00287ED00023A8
:104130001A46194606A801F07CFE606A007E002837
:1041400075D0FF231A46194607A801F072FEBDF884
:104150001800ADF814009DF81A008DF81600BDF88F
:104160001C00ADF810009DF81E008DF81200606A6A
:104170000025007E00287DD0002008A90091CDE90F
:1041800001054E20A0EB5600282306F10A020A2161
:104190000395FFF7CDF8684800220BA9803801F09D
:1041A0007EF9C6B2606A007E01287DD000231A46DF
:1041B000194607A801F03DFE606A007E012874D010
:1041C000FF231A46194606A801F033FEBDF81C006D
:1041D000ADF814009DF81E008DF81600BDF818000B
:1041E000ADF810009DF81A008DF81200606A007E8C
:1041F000012800D000200BA90091CDE90105322053
:104200002823A0EB56001A4632210395FFF790F8B9
:10421000494800220AA9803801F041F9606A007E0D
:1042200002287AD000231A46194601E062E065E0D0
:1042300007A801F0FEFD606A007E022872D0FF230D
:104240001A46194606A801F0F4FDBDF81C00ADF8A9
:1042500014009DF81E008DF81600BDF81800ADF88A
:1042600010009DF81A008DF81200606A007E022886
:104270005CD000E047E000200AA90091CDE90105EB
:104280006C202823A0EB56001A4632210395FFF735
:104290004FF8FF231A46194606A801F0CAFD018807
:1042A000ADF80010807801E02FE032E08DF80200D8
:1042B00021480099803801F081FC00231A461946F4
:1042C00006A801F0B6FD0188ADF8001080788DF8E1
:1042D000020019480099803801F07AF9606A90F973
:1042E0001800022824D0012824D01AA0FEF7D0FEFE
:1042F0000CB070BDFF231A4619461BE73823A522D0
:10430000132121E709E0012037E7FF231A46194668
:104310004FE73823A522132155E7FF231A461946F4
:1043200083E7FFE73823A52213218BE70120A3E7CA
:104330000BA0DBE70CA0D9E7C805002025303264CC
:10434000000000002530346400000000623D0108D8
:104350000800002053657420796561720000000038
:104360005365742064617900536574206D6F6E74B9
:10437000680000002DE9F0438BB08649864801F0C3
:1043800009FC854801F05BF900EBD0703621824FC3
:10439000A1EB600080370FFA80F980A107A8BA6806
:1043A000FBF774FF002207A97B4801F078F87D4DE8
:1043B000C6B2686A007E00287DD000231A461946DE
:1043C00006A801F036FD686A007E002874D0FF233D
:1043D0001A4619460AA801F02CFDBDF81800ADF8E0
:1043E00014009DF81A008DF81600BDF82800ADF8ED
:1043F00010009DF82A008DF81200686A0024007EE3
:1044000000287DD05FF000010DF11C0840468DE8CA
:1044100013002F202823A0EB56001A464946039488
:10442000FEF786FF5DA107A87A68FBF72FFF002241
:1044300007A9594801F033F8C6B2686A007E01281E
:104440007DD000231A4619460AA801F0F2FC686ADA
:10445000007E012874D0FF231A46194606A801F0F1
:10446000E8FCBDF82800ADF814009DF82A008DF88E
:104470001600BDF81800ADF810009DF81A008DF870
:104480001200686A007E012871D00021CDF80080FA
:10449000CDE9011468202823A0EB56001A464946AE
:1044A0000394FEF745FFFF231A46194606A801F0BC
:1044B000C0FC018801E056E05AE0ADF800108078B9
:1044C0008DF802003448009901F078FB00231A4669
:1044D000194606A801F0ADFC0188ADF800108078FF
:1044E0008DF802002C48009901F072F800231A465A
:1044F00019460AA801F09DFCFF2307461A4600E072
:104500003AE0194606A801F094FC0646002226A1CE
:10451000214800F0C4FF3988ADF81410B9788DF83F
:1045200016103188ADF81010B1788DF812101EA158
:10453000CDE90014029400EBD070502101E01DE0A1
:1045400020E0A1EB600000B222230422494603943C
:10455000FEF7EEFE686A007ED0B114A0FEF798FD6B
:104560000BB0BDE8F083FF231A46194628E70DE09B
:104570003823A52213212DE7012145E7FF231A4601
:10458000194661E73823A522132167E701217DE75A
:1045900009A0E3E7623D01084805002025303264A8
:1045A00000000000080000203A000000536574205D
:1045B0006D696E757465000053657420686F75725F
:1045C000000000002DE9F04F89B04349434801F055
:1045D000E1FA424DDFF808915035002707EB47001C
:1045E000002600EBC7011E2000EB410007EB470B44
:1045F0000FFA80FAD9F824000BEB060190F91800A5
:104600000B2801DD0C2000E000200C18232000EB1B
:104610004618224633A108A8FBF738FE285D032878
:1046200001D901202855D9F8240090F91800A0429A
:1046300006D13823A522132106A801F0FAFB0BE0CE
:10464000285D264900EB4000B93908440188ADF8DF
:10465000181080788DF81A00285D032835D00023C3
:104660001A46194607A801F0E4FBBDF81800ADF89A
:1046700014009DF81A008DF81600BDF81C00ADF866
:1046800010009DF81E008DF81200D9F8240090F952
:104690001800A04202D0285D03281AD00022002072
:1046A00008A9CDE90010CDE9020214231E225146CB
:1046B0000FFA88F0FEF73CFE761C032E9ADB7F1C77
:1046C000042F8BDB09B0BDE8F08FFF231A46194693
:1046D000C8E70222E3E700000F6301084805002055
:1046E0000800002025640000243010B502B2074BFA
:1046F00014460B21064800F0A7FF044B22468433E2
:10470000BDE810408821024800F09EBFD0D30008C9
:104710004805002010B5554C2DED048B09E000BF75
:1047200002F030F9E083012002F07CF9022002F06F
:10473000DBF8022002F0E0F80028F1D1E08B40F62F
:104740006E72A0F1320191427ED804F087F941ECFB
:10475000100B53EC102B9FED460B51EC100B04F09B
:1047600025F89FED451B53EC112B04F089FA9FEDC2
:10477000441B53EC112B04F085F903F03DFF00EED0
:10478000900A9FED411A80EE810A01F0DBFE9FED59
:104790003F1AC0EE010A10EE900A04F05BFB9FED99
:1047A0003C1B53EC112B03F059FF03F025FF00EEE7
:1047B000100AB7EE001AC1EE000A10EE900A04F0DB
:1047C00049FB9FED351B53EC112B04F059FA03F014
:1047D00013FF94ED100AF0EE080A08EE100A30EE0E
:1047E000201AB4EEC81AF1EE10FA24DB70EE600A5B
:1047F000F4EEC80AF1EE10FA1DD810EE100A04F01B
:1048000029FB9FED271B53EC112B04F03BF941ECE6
:10481000190B18EE100A04F01DFB9FED231B53EC3F
:10482000112B04F02FF953EC192B03F017FF03F0B1
:10483000E3FE08EE100A84ED108AB0EE480A01F09B
:1048400037FFBDEEC00A00E005E010EE100A40B2EE
:10485000BDEC048B10BD322802D26FF07E00F7E76A
:10486000B0F57A6FF4D97F20F2E70000080000204D
:104870000000000000FEAF40000000000000F03F1C
:1048800000000000001DE04000409C4500E076452F
:1048900083DBB5DCE1796B3F666666666612714064
:1048A000666666666666E63F333333333333D33F3B
:1048B000BFF34F8F04480168044A01F4E0611143DB
:1048C0000160BFF34F8FFEE70CED00E00400FA0536
:1048D00070B5224E88B0304603F088FD0024532086
:1048E000ADF81000ADF814404FF4FA75ADF8124071
:1048F0000695ADF816408DF81C4004A9304603F02B
:10490000B5FD01200090ADF80440ADF80840014627
:10491000ADF80640ADF80A40ADF80C406A463046A6
:1049200003F010FC2A460121304603F028FD6022E6
:104930000121304603F0FCFC08220121304603F03F
:104940002DFD0121304603F0EEFD304603F0F4FB6F
:10495000304603F085FD08B070BD00000004004043
:104960002DE9FC41FEF72CFE284C40255026E06244
:10497000616A4FF4FA6704F170000B68A3F5807266
:104980009B3A07D1CA69D2F81CC09CF818C0BCF188
:10499000050F03D0B3F5CE7F06D00AE0C2611B48F5
:1049A000B0306062C26111E0CA69D3691B7E052B19
:1049B00007D0C969C1616062FEF702FEA062BDE86E
:1049C000FC81C26112486062A16CC161114801F0B2
:1049D0009BF8114B01AA69460E4800F0A1FFBDF9F2
:1049E0000410BDF9000001EBD171A5EB610100EBF2
:1049F000D0700AB2A6EB600001B2074B054800F088
:104A000023FE384602F00EF8D6E70000080000202A
:104A1000B8020020480500208DA300081B4810B5EF
:104A200082214182416A4A6912B1BDE810401047B3
:104A30008A6862B18B8853B191F9183002EB431246
:104A40000023D161426213761368022B04D0426ABC
:104A50001368062B06D00BE00D4B5B7B012B07D1B7
:104A6000137605E0D369094A8364D0324262D36188
:104A7000896811B1406A806828B1FCF7EBF9BDE89C
:104A80001040FEF7DFB8FEF7FBFDF8E70800002056
:104A900080050020810705D1642190FBF1F201FB24
:104AA000120141B94FF4C87190FBF1F201FB120001
:104AB00008B10020704701207047000030B5002386
:104AC00085B01A46194601A801F0B3F90188ADF87E
:104AD000001080788DF802002448009900F078FDDD
:104AE000FF231A46194601A801F0A3F90188ADF881
:104AF000001080788DF802001C48009901F05EF8E3
:104B00001A4801F001F81A4D82241A4B6C8203AA4C
:104B100002A9164800F004FF98B9BDF90C10402214
:104B200001EBD171BDF90800A2EB61010AB200EB03
:104B3000D0705021A1EB600001B20E4B0B4800F089
:104B400083FD4FF4FA6001F06DFF0848383080783B
:104B500028B16C820020FDF703FE05B030BD03488C
:104B600000F0D2FF014801F0B9F9F6E7480500204E
:104B70000800002010FE0008154A30B4506A016990
:104B800009B130BC08478388002B1FD08221518295
:104B9000017E104A491C49B2017652780E4C032519
:104BA000012A02D0022A0ED004E0012902D1A0423B
:104BB00000D1057690F91810994201DB00210176A9
:104BC00030BCFEF73FB80229F1D0F3E730BC7047A4
:104BD0000800002080050020D8020020164B30B4C9
:104BE000586AC16809B130BC08478288002A21D0C0
:104BF00082215982017E114B491E49B201765B78B0
:104C00000F4C012B02D0022B06D007E0022905D160
:104C1000A04207D100210BE0022906D0002901DAC9
:104C2000521E027630BCFEF70DB8A042FAD1012127
:104C30000176F7E730BC70470800002080050020AF
:104C4000D80200202DE9F0434FF48076F201214D87
:104C5000DFF884901411214B4FF09041002801DAC5
:104C6000002026E0142824DB1B4899F80C801C4FF8
:104C7000807B4FF0140CB8F1000F06D0B8F1010F93
:104C80000CD0B8F1020F18D10FE083F801C08E618B
:104C90008C6107E03A6010E02A600EE083F801C002
:104CA0008E618C620228F7D1F4E72A608E628C61F3
:104CB00003E058702A608E628C6299F80800002820
:104CC00006D0187B002803D0587B002800D18C61C7
:104CD000BDE8F0832804004880050020080000207B
:104CE0001804004870B50B4C4FF4FA700025608230
:104CF000A5821420FFF7A6FF074901208870FFF75F
:104D000029F82571FEF75CFCE062FEF759FC606350
:104D100070BD00000800002080050020044900222A
:104D2000A1F5347041620A7682214182FDF78ABF83
:104D3000D802002070B50E4E00250E4C86F830507B
:104D4000708EE0822846FFF77DFFB5702572FF2048
:104D5000E07365732573A6F1380000F0D5FEA6F167
:104D6000380001F0BBF8FEF72BFCE06270BD0000DC
:104D7000800500200800002030B5002385B01A46C9
:104D8000194601A801F055F80188ADF800108078A7
:104D90008DF802002448009900F01AFCFF231A46FF
:104DA000194601A801F045F80188ADF80010807897
:104DB0008DF802001C48009900F000FF1A4800F02E
:104DC000A3FE1A4D82241A4B6C8203AA02A916482C
:104DD00000F0A6FD98B9BDF90C10402201EBD1718D
:104DE000BDF90800A2EB61010AB200EBD0705021BE
:104DF000A1EB600001B20E4B0B4800F025FC4FF414
:104E0000FA6001F00FFE08483830807828B16C82D3
:104E10000020FDF7A5FC05B030BD034800F074FE8E
:104E2000014801F05BF8F6E7480500200800002083
:104E3000210001082DE9FF4F804600699BB0002842
:104E40007CD082781792022A01D0012A76D1D8F834
:104E500014200792002216926FF063020C92C07821
:104E60000D9002910020CFE21E98435C0020099033
:104E70001890D8F810000524611C425C015D02EB1B
:104E8000012111F0FF0129D0E21C855CA21C99428E
:104E9000825C05EB02220FFA82F97CD1B9F1080F8E
:104EA0001CDB01211891211D04F1050B435C0993C2
:104EB00010F80B10E71D01F07F020492A21D0025DF
:104EC000825C0A92C05D049A00F07F0A9A1A1798D1
:104ED000A2EB0A06022802D0012871D06FE2C809AD
:104EE0006FD00A9A0D99A9F10800891A0026A1EB42
:104EF0000A070E96119096E0D8F8100001190E9846
:104F00000830085C95FBF7F10FFA81FB10F0C00F39
:104F100058D000F03F0A05EB0A010DB2B14606EB8E
:104F20000A010EB2000678D5289840B1404698F89C
:104F3000193098F8182098F8171007E077E20798CA
:104F4000C0F30743C0F30722C1B2404600F03EFE63
:104F50001D990A98084410903844401E00B21990D8
:104F60000299049808440B9018E01099199B01EBE2
:104F7000090002B20B98584401B2404600F0FAFD15
:104F8000A7EB0901AAEB01000FFA80FA4FF0000924
:104F90000BF1010000E046E20FFA80FB09EB0A008A
:104FA000B842E2DC1098484400EB0A0102B20B98C8
:104FB000491E0BB2584401B2404600F0DBFD2CE024
:104FC000D5E036E0289949B1404698F8193098F86C
:104FD000182098F8171000F0F9FD09E08006020E7D
:104FE0004046079900F026FA0146404600F0E6FDEB
:104FF0001D990A980844304402B204990298014469
:1050000001EB0B0001B2404600F0F0FD6D1C761C78
:105010002DB236B201E0F01B06B2BE42FBDA0E98AA
:10502000401C00B20E900E9911988142FFF664AFB9
:10503000C5E10027A9F1080011900E97384691E0CC
:10504000D8F8100001190E980830085C95FBF6F1AD
:105050000FFA81FB10F0C00F53D000F03F0A05EBB0
:105060000A010DB2B94607EB0A010FB2000673D56B
:10507000289838B1404698F8193098F8182098F8D0
:10508000171006E00798C0F30743C0F30722C1B228
:10509000404600F09BFD049902980844109030446B
:1050A000401E00B219900A991D9808440B9016E012
:1050B0000B981099584402B201EB090001B2404626
:1050C000199B00F03FFDA6EB0901AAEB01000FFAC6
:1050D00080FA0BF101004FF000090FFA80FB09EB99
:1050E0000A00B042E4DC1098484400EB0A01491E73
:1050F0000BB20B9959440AB201B2404600F022FDAE
:105100002AE0289949B1404698F8193098F81820B3
:1051100098F8171000F05AFD09E08006020E40468C
:10512000079900F087F90146404600F047FD1D99B8
:105130000A98014401EB0B0002B20299049808445A
:10514000384401B2404600F051FD6D1C7F1C2DB269
:105150003FB201E0B81B07B2B742FBDA0E98401C21
:1051600000B20E9011998842FFF66AAF27E12898A5
:1051700040B1404698F8193098F8182098F8171060
:1051800000F024FDD8F81000C15DC9097ED010F8E8
:105190000B00C00962D00A9A0D99A9F10800891A7A
:1051A00000261190A1EB0A070E96304652E000BF90
:1051B000D8F8100001190E980830085C00F07F093B
:1051C000C00939D095FBF7F00FFA80FB02990498DB
:1051D000B246084410900A991D9808440B901BE0B1
:1051E000384403B20B981099504402B201EB0B0003
:1051F00001B2404600F0BEFCA7EB0A00A9EB00019B
:105200000FFA81F92918304406B20BF101000DB2F2
:105210004FF0000A0FFA80FB0AEB0900B8420B9826
:10522000DEDC504400EB090102B210980BB2584486
:1052300001B2404600F09EFC05EB090005B206EB0A
:10524000090000E0F01B06B2BE42FBDA0E98401CDB
:1052500000B20E9011998842AADBB0E00027A9F1B4
:1052600008000E97109055E0D8F81000BA460119C2
:105270000E980830085C95FBF6F100F07F09C00934
:105280000FFA81FB38D00299049800E047E0084407
:105290000B900A991D980844CDF844000AEB0900C8
:1052A000B0421CDD0B98304403B21198584402B24E
:1052B0000B98504401B2404600F044FCA6EB0A00B3
:1052C000A9EB00010FFA81F92918384407B20BF154
:1052D00001000DB24FF0000A0FFA80FBDEE70B99D8
:1052E00001EB0A0000EB09010BB2119959440AB213
:1052F00001B2404600F026FC05EB090005B207EBC1
:10530000090000E0B81B07B2B742FBDA0E98401C58
:1053100000B20E900E9910988142A5DB4FE0002755
:10532000A9F108000597BB460F9045E0D8F810009A
:1053300001190BF10800085C0E9001E0B81B07B2E0
:10534000B742FBDA0598B94690FBF6F00FFA80FAFF
:105350005FF0000509EB0500B04205D10AF101003C
:10536000C5F100090FFA80FAC5F107010120884054
:105370000E9900B2014211D10A991D98014401EB26
:105380000A00411C0BB202B204990298014401EBDD
:105390000900284401B2404600F0ECFB6D1CEDB260
:1053A000082DD7D30BF101000FFA80FB05980830C8
:1053B00000B208373FB205900F998B45B6DB2998AC
:1053C00080B1169940566FF0630188420ADD0C9057
:1053D000169A2998104490F90100884202DD501C69
:1053E00000B21690189860B102990998084400B26A
:1053F00002900C9810F1640F03DD0299084400B28A
:1054000002901598401C00B215901E98FBF77AF890
:10541000159988423FF628AD07991FB04046BDE870
:10542000F04F00F0CBBB04EB09010CB224E51FB038
:10543000BDE8F08F7FB5CCB2C2F1FF0314FB03F4DB
:10544000C57D15FB0245C1F3072414FB03F4067E5A
:1054500016FB0244C1F3074111FB03F1407E10FB30
:105460000213C82295FBF2F094FBF2F193FBF2F2E7
:10547000FF2800DDFF20FF2900DDFF21FF2A00DDDE
:10548000FF22D3B2CAB2C1B203A800F0D2FC018895
:10549000ADF80010827804B041EA024070BD2DE9F9
:1054A000F74F0646006900284FD04FF000096FF013
:1054B000630B4D464C4642E001984FF0000A5346BC
:1054C00010F804C0306905214A1C475C825C02EB7D
:1054D000072212F0FF0212D0CF1C10F807808F1C99
:1054E0006245C75D08EB07273FB205D1082F06DBF1
:1054F00001230A1D10F802A0394409B2E4E702981A
:1055000088B110F909006FF0630188420BDD029A3F
:10551000834602EB090090F90100884203DD09F19E
:1055200001000FFA80F943B105EB0A0005B21BF147
:10553000640F02DD05EB0B0005B2641C24B2019878
:10554000FAF7E0FFA042B7D82846BDE8FE8F2DE964
:10555000F0418046CD18A81E03B217460E464046BD
:10556000069C00F0EFFA3C44A01E6D1E03B22DB263
:105570003A462946404600F0FDFA641E701C24B2EB
:1055800001B22B462246404600F0DCFA7F1C23463F
:105590003AB231464046BDE8F04100F0EBBA2DE9A1
:1055A000FC411E46054613460C461430089F00F089
:1055B00035FC0146D819A219401E521E00B212B283
:1055C000CDE900202246284600F0E8F9BDE8FC813C
:1055D00003B5BDF80410A0F817109DF80610417629
:1055E0000CBD10B5417300240473B0F90630B0F956
:1055F0000420012907D002290AD0032903D00281FF
:105600004381447310BD038142810121017310BDA8
:105610000281438110BD704713B5034601A800F015
:10562000FDFB1968C2B28C68C0F307211846A04779
:105630001CBD0368CAB2C1F307219B681847006903
:10564000002800D0C07870472DE9FF4F95B01D00AD
:10565000934607D028785A2807D06FF0010019B078
:10566000BDE8F08F4FF0FF30F9E768780104A878C3
:1056700001EB0020E97808445FEA000A02D56FF0E8
:105680000200ECE728790104687901EB0020A97990
:1056900040180B9001D540B2E1E7EE79FF2E02D31E
:1056A0006FF00400DBE7687A297A00EB012000B292
:1056B0005FEA000802D56FF00500D0E7E87AA97A22
:1056C00000EB012007B2002F02DA6FF00600C6E7F8
:1056D000304600F01FFF0024039009940120069437
:1056E000CDE90F041598407B20B14FEA880000F007
:1056F00011FF81468949082008601598407BC0B198
:10570000CDF840B060210AF10C000C95CDE90D01F7
:105710000CA800F0BCFEE8B10CA800F0A0FE401EF2
:10572000C0B20A900CA800F09AFE401E00F0FF0ADA
:10573000C6E00BEB0700401E00B21699009001EB8B
:105740000800401E03B215985A460068076815986D
:10575000B847D7E708210CA800F0A8FE07460F9825
:1057600010B10020119732E011984FF6FF7101EA55
:10577000002015993843497BB1B3069A49F82200B5
:105780000698401C0690404520D1109802B2169809
:1057900000924044401E03B2159800680568DDE998
:1057A0001501A8471098401C10901598407B0128BF
:1057B00020D0B8F1010507D439F8250001B21598B9
:1057C000FFF737FF6D1EF7D50020069001200F90E0
:1057D0000998401C099003980755641C24B2B442F0
:1057E00001DBA01B04B287E0FFE701B21598FFF7C9
:1057F00020FFEBE7002506E039F8250001B21598F7
:10580000FFF717FF6D1C4545F6DBDDE70A98201A08
:1058100000E0A81905B2002DFBDB01E0A81B05B2D2
:10582000B542FBDAA34603E0ABEB06000FFA80FBC0
:10583000B345F9DA0998641C401C09900F9824B20A
:1058400020B10398405D1190002034E011984FF68C
:10585000FF7101EA00210398405D08431599497BD7
:10586000A1B3069A49F822000698401C06904045CC
:1058700020D1109802B2169800924044401E03B204
:10588000159800680768DDE91501B8471098401CB5
:1058900010901598407B01281ED0B8F1010707D45D
:1058A00039F8270001B21598FFF7C3FE7F1EF7D520
:1058B0000020069001200F900398425D00F80B2015
:1058C000BAF1010000F0FF0AA0D213E0FFE701B235
:1058D0001598FFF7AEFEEDE7002706E039F8270040
:1058E00001B21598FFF7A5FE7F1C4745F6DBDFE701
:1058F000A01B04B2B442FBDA0B99099888427FF7E7
:1059000007AF0649082010390860039800F0FAFD37
:10591000484600F0F7FD0020A1E6000028040048FA
:1059200010B52BB118785A2805D06FF0010010BDC2
:105930004FF0FF3010BD58789C78000400EB042035
:10594000DC78E04202D56FF0020010BD18795C7976
:10595000000400EB04209C79001901D540B210BD71
:10596000D879FF2802D36FF0040010BD587A1C7A52
:1059700000EB042000B20880002802DA6FF0050076
:1059800010BDD87A997A00EB012000B2108000286F
:1059900002DA6FF0060010BD002010BD2DE9FC47B3
:1059A0009046DDE90A5406461F468946104645459D
:1059B00001DAA8460546BC4201DA27461C46B6F97C
:1059C000081041456FDDB6F90A00B8426BDDB8F149
:1059D000000F03DA002D66DB4FF00008002F02DA1B
:1059E000002C60DB0027B27B002AB6F92C200DD0FA
:1059F000F2B3337BEBB3954203DB90457CDA521E66
:105A000015B2A04244DC401E04B241E082B3A94278
:105A100001DC491E0DB2A04201DC401E04B2707BC5
:105A200040B3012803D002283ED0032864D102EB02
:105A3000080001B2501903B2B6F9060091FBF0F26A
:105A400000FB121293FBF0F100FB1135AA4255DD69
:105A5000401E00B2CDE9000430683B464946D0F80C
:105A600004C03046E047CDE9005430683B4602E0D0
:105A700014E003E018E0002244683AE0944203DBBB
:105A8000974239DA521E14B2A94201DC491E0DB206
:105A9000CDE9005430683B46446829E0A942B0DCB7
:105AA000491E0DB2ADE727E0D01903B2101901B2BB
:105AB000B6F9060093FBF0F200FB123391FBF0F213
:105AC00000FB1214A3420FDD401E00B2CDE90050CE
:105AD00030684246494647683046B847CDE90054E9
